{"abi":[{"type":"constructor","inputs":[{"name":"routerAddress_","type":"address","internalType":"address"}],"stateMutability":"nonpayable"},{"type":"function","name":"V2Router02Address","inputs":[],"outputs":[{"name":"","type":"address","internalType":"address"}],"stateMutability":"view"},{"type":"function","name":"getAmountOutHelper","inputs":[{"name":"amountIn_","type":"uint256","internalType":"uint256"},{"name":"path_","type":"address[]","internalType":"address[]"}],"outputs":[{"name":"amountOut","type":"uint256","internalType":"uint256"}],"stateMutability":"view"},{"type":"function","name":"swapETHForTokens","inputs":[{"name":"amountOutMin_","type":"uint256","internalType":"uint256"},{"name":"path_","type":"address[]","internalType":"address[]"},{"name":"deadline_","type":"uint256","internalType":"uint256"}],"outputs":[],"stateMutability":"payable"},{"type":"function","name":"swapTokens","inputs":[{"name":"amountIn_","type":"uint256","internalType":"uint256"},{"name":"amountOutMin_","type":"uint256","internalType":"uint256"},{"name":"path_","type":"address[]","internalType":"address[]"},{"name":"deadline_","type":"uint256","internalType":"uint256"}],"outputs":[{"name":"tokenOut_","type":"uint256","internalType":"uint256"}],"stateMutability":"nonpayable"},{"type":"function","name":"swapTokensForETH","inputs":[{"name":"amountIn_","type":"uint256","internalType":"uint256"},{"name":"amountOutMin_","type":"uint256","internalType":"uint256"},{"name":"path_","type":"address[]","internalType":"address[]"},{"name":"deadline_","type":"uint256","internalType":"uint256"}],"outputs":[],"stateMutability":"nonpayable"},{"type":"event","name":"ETHForTokensSwap","inputs":[{"name":"user","type":"address","indexed":true,"internalType":"address"},{"name":"tokenOut","type":"address","indexed":true,"internalType":"address"},{"name":"amountIn","type":"uint256","indexed":false,"internalType":"uint256"},{"name":"amountOut","type":"uint256","indexed":false,"internalType":"uint256"}],"anonymous":false},{"type":"event","name":"liquidityAdded","inputs":[{"name":"user","type":"address","indexed":true,"internalType":"address"},{"name":"tokenA","type":"address","indexed":false,"internalType":"address"},{"name":"tokenB","type":"address","indexed":false,"internalType":"address"},{"name":"liquidity","type":"uint256","indexed":true,"internalType":"uint256"}],"anonymous":false},{"type":"event","name":"liquidityRemoved","inputs":[{"name":"user","type":"address","indexed":true,"internalType":"address"},{"name":"tokenA","type":"address","indexed":true,"internalType":"address"},{"name":"tokenB","type":"address","indexed":true,"internalType":"address"},{"name":"amountA","type":"uint256","indexed":false,"internalType":"uint256"},{"name":"amountB","type":"uint256","indexed":false,"internalType":"uint256"}],"anonymous":false},{"type":"event","name":"tokenSwap","inputs":[{"name":"user","type":"address","indexed":true,"internalType":"address"},{"name":"tokenIn","type":"address","indexed":true,"internalType":"address"},{"name":"tokenOut","type":"address","indexed":true,"internalType":"address"},{"name":"amountIn","type":"uint256","indexed":false,"internalType":"uint256"},{"name":"amountOut","type":"uint256","indexed":false,"internalType":"uint256"}],"anonymous":false},{"type":"event","name":"tokensForETHSwap","inputs":[{"name":"user","type":"address","indexed":true,"internalType":"address"},{"name":"tokenIn","type":"address","indexed":true,"internalType":"address"},{"name":"amountIn","type":"uint256","indexed":false,"internalType":"uint256"},{"name":"amountOut","type":"uint256","indexed":false,"internalType":"uint256"}],"anonymous":false},{"type":"error","name":"SafeERC20FailedOperation","inputs":[{"name":"token","type":"address","internalType":"address"}]}],"bytecode":{"object":"0x608060405234801561000f575f5ffd5b5060405161140b38038061140b833981810160405281019061003191906100d4565b805f5f6101000a81548173ffffffffffffffffffffffffffffffffffffffff021916908373ffffffffffffffffffffffffffffffffffffffff160217905550506100ff565b5f5ffd5b5f73ffffffffffffffffffffffffffffffffffffffff82169050919050565b5f6100a38261007a565b9050919050565b6100b381610099565b81146100bd575f5ffd5b50565b5f815190506100ce816100aa565b92915050565b5f602082840312156100e9576100e8610076565b5b5f6100f6848285016100c0565b91505092915050565b6112ff8061010c5f395ff3fe608060405260043610610049575f3560e01c8063497c5a4b1461004d57806391e2952f14610089578063aadce83c146100b1578063bafd54be146100db578063f7b8dc8f146100f7575b5f5ffd5b348015610058575f5ffd5b50610073600480360381019061006e9190610a7c565b610133565b6040516100809190610ae8565b60405180910390f35b348015610094575f5ffd5b506100af60048036038101906100aa9190610ca3565b610208565b005b3480156100bc575f5ffd5b506100c561045b565b6040516100d29190610d32565b60405180910390f35b6100f560048036038101906100f09190610d4b565b61047f565b005b348015610102575f5ffd5b5061011d60048036038101906101189190610ca3565b610623565b60405161012a9190610ae8565b60405180910390f35b5f5f5f5f9054906101000a900473ffffffffffffffffffffffffffffffffffffffff1673ffffffffffffffffffffffffffffffffffffffff1663d06ca61f8686866040518463ffffffff1660e01b815260040161019293929190610e73565b5f60405180830381865afa1580156101ac573d5f5f3e3d5ffd5b505050506040513d5f823e3d601f19601f820116820180604052508101906101d49190610f77565b905080600182516101e59190610feb565b815181106101f6576101f561101e565b5b60200260200101519150509392505050565b61024f333086855f815181106102215761022061101e565b5b602002602001015173ffffffffffffffffffffffffffffffffffffffff166108ba909392919063ffffffff16565b815f815181106102625761026161101e565b5b602002602001015173ffffffffffffffffffffffffffffffffffffffff1663095ea7b35f5f9054906101000a900473ffffffffffffffffffffffffffffffffffffffff16866040518363ffffffff1660e01b81526004016102c492919061104b565b6020604051808303815f875af11580156102e0573d5f5f3e3d5ffd5b505050506040513d601f19601f8201168201806040525081019061030491906110a7565b505f5f5f9054906101000a900473ffffffffffffffffffffffffffffffffffffffff1673ffffffffffffffffffffffffffffffffffffffff166318cbafe586868633876040518663ffffffff1660e01b8152600401610367959493929190611153565b5f604051808303815f875af1158015610382573d5f5f3e3d5ffd5b505050506040513d5f823e3d601f19601f820116820180604052508101906103aa9190610f77565b9050825f815181106103bf576103be61101e565b5b602002602001015173ffffffffffffffffffffffffffffffffffffffff163373ffffffffffffffffffffffffffffffffffffffff167fd586883237e1beede47b643b9865a53495c440cca4cc3da8e017f919961f194d8784600186516104259190610feb565b815181106104365761043561101e565b5b602002602001015160405161044c9291906111ab565b60405180910390a35050505050565b5f5f9054906101000a900473ffffffffffffffffffffffffffffffffffffffff1681565b5f34116104c1576040517f08c379a00000000000000000000000000000000000000000000000000000000081526004016104b89061122c565b60405180910390fd5b5f5f5f9054906101000a900473ffffffffffffffffffffffffffffffffffffffff1673ffffffffffffffffffffffffffffffffffffffff16637ff36ab534868633876040518663ffffffff1660e01b8152600401610522949392919061124a565b5f6040518083038185885af115801561053d573d5f5f3e3d5ffd5b50505050506040513d5f823e3d601f19601f820116820180604052508101906105669190610f77565b905082600184516105779190610feb565b815181106105885761058761101e565b5b602002602001015173ffffffffffffffffffffffffffffffffffffffff163373ffffffffffffffffffffffffffffffffffffffff167f981bfed6efa480282468f7fa3022ad7a009f10dc54ca50b12f2d5dae4b71b6ef3484600186516105ee9190610feb565b815181106105ff576105fe61101e565b5b60200260200101516040516106159291906111ab565b60405180910390a350505050565b5f61066b333087865f8151811061063d5761063c61101e565b5b602002602001015173ffffffffffffffffffffffffffffffffffffffff166108ba909392919063ffffffff16565b825f8151811061067e5761067d61101e565b5b602002602001015173ffffffffffffffffffffffffffffffffffffffff1663095ea7b35f5f9054906101000a900473ffffffffffffffffffffffffffffffffffffffff16876040518363ffffffff1660e01b81526004016106e092919061104b565b6020604051808303815f875af11580156106fc573d5f5f3e3d5ffd5b505050506040513d601f19601f8201168201806040525081019061072091906110a7565b505f5f5f9054906101000a900473ffffffffffffffffffffffffffffffffffffffff1673ffffffffffffffffffffffffffffffffffffffff166338ed173987878733886040518663ffffffff1660e01b8152600401610783959493929190611153565b5f604051808303815f875af115801561079e573d5f5f3e3d5ffd5b505050506040513d5f823e3d601f19601f820116820180604052508101906107c69190610f77565b905080600182516107d79190610feb565b815181106107e8576107e761101e565b5b6020026020010151915083600185516108019190610feb565b815181106108125761081161101e565b5b602002602001015173ffffffffffffffffffffffffffffffffffffffff16845f815181106108435761084261101e565b5b602002602001015173ffffffffffffffffffffffffffffffffffffffff163373ffffffffffffffffffffffffffffffffffffffff167f1eb4ccc24850ba0504314653c9a6dcee279abaff090ebcdf035e1acb8021090a89866040516108a99291906111ab565b60405180910390a450949350505050565b610936848573ffffffffffffffffffffffffffffffffffffffff166323b872dd8686866040516024016108ef93929190611294565b604051602081830303815290604052915060e01b6020820180517bffffffffffffffffffffffffffffffffffffffffffffffffffffffff838183161783525050505061093c565b50505050565b5f5f60205f8451602086015f885af18061095b576040513d5f823e3d81fd5b3d92505f519150505f821461097457600181141561098f565b5f8473ffffffffffffffffffffffffffffffffffffffff163b145b156109d157836040517f5274afe70000000000000000000000000000000000000000000000000000000081526004016109c89190610d32565b60405180910390fd5b50505050565b5f604051905090565b5f5ffd5b5f5ffd5b5f819050919050565b6109fa816109e8565b8114610a04575f5ffd5b50565b5f81359050610a15816109f1565b92915050565b5f5ffd5b5f5ffd5b5f5ffd5b5f5f83601f840112610a3c57610a3b610a1b565b5b8235905067ffffffffffffffff811115610a5957610a58610a1f565b5b602083019150836020820283011115610a7557610a74610a23565b5b9250929050565b5f5f5f60408486031215610a9357610a926109e0565b5b5f610aa086828701610a07565b935050602084013567ffffffffffffffff811115610ac157610ac06109e4565b5b610acd86828701610a27565b92509250509250925092565b610ae2816109e8565b82525050565b5f602082019050610afb5f830184610ad9565b92915050565b5f601f19601f8301169050919050565b7f4e487b71000000000000000000000000000000000000000000000000000000005f52604160045260245ffd5b610b4782610b01565b810181811067ffffffffffffffff82111715610b6657610b65610b11565b5b80604052505050565b5f610b786109d7565b9050610b848282610b3e565b919050565b5f67ffffffffffffffff821115610ba357610ba2610b11565b5b602082029050602081019050919050565b5f73ffffffffffffffffffffffffffffffffffffffff82169050919050565b5f610bdd82610bb4565b9050919050565b610bed81610bd3565b8114610bf7575f5ffd5b50565b5f81359050610c0881610be4565b92915050565b5f610c20610c1b84610b89565b610b6f565b90508083825260208201905060208402830185811115610c4357610c42610a23565b5b835b81811015610c6c5780610c588882610bfa565b845260208401935050602081019050610c45565b5050509392505050565b5f82601f830112610c8a57610c89610a1b565b5b8135610c9a848260208601610c0e565b91505092915050565b5f5f5f5f60808587031215610cbb57610cba6109e0565b5b5f610cc887828801610a07565b9450506020610cd987828801610a07565b935050604085013567ffffffffffffffff811115610cfa57610cf96109e4565b5b610d0687828801610c76565b9250506060610d1787828801610a07565b91505092959194509250565b610d2c81610bd3565b82525050565b5f602082019050610d455f830184610d23565b92915050565b5f5f5f60608486031215610d6257610d616109e0565b5b5f610d6f86828701610a07565b935050602084013567ffffffffffffffff811115610d9057610d8f6109e4565b5b610d9c86828701610c76565b9250506040610dad86828701610a07565b9150509250925092565b5f82825260208201905092915050565b5f819050919050565b610dd981610bd3565b82525050565b5f610dea8383610dd0565b60208301905092915050565b5f610e046020840184610bfa565b905092915050565b5f602082019050919050565b5f610e238385610db7565b9350610e2e82610dc7565b805f5b85811015610e6657610e438284610df6565b610e4d8882610ddf565b9750610e5883610e0c565b925050600181019050610e31565b5085925050509392505050565b5f604082019050610e865f830186610ad9565b8181036020830152610e99818486610e18565b9050949350505050565b5f67ffffffffffffffff821115610ebd57610ebc610b11565b5b602082029050602081019050919050565b5f81519050610edc816109f1565b92915050565b5f610ef4610eef84610ea3565b610b6f565b90508083825260208201905060208402830185811115610f1757610f16610a23565b5b835b81811015610f405780610f2c8882610ece565b845260208401935050602081019050610f19565b5050509392505050565b5f82601f830112610f5e57610f5d610a1b565b5b8151610f6e848260208601610ee2565b91505092915050565b5f60208284031215610f8c57610f8b6109e0565b5b5f82015167ffffffffffffffff811115610fa957610fa86109e4565b5b610fb584828501610f4a565b91505092915050565b7f4e487b71000000000000000000000000000000000000000000000000000000005f52601160045260245ffd5b5f610ff5826109e8565b9150611000836109e8565b925082820390508181111561101857611017610fbe565b5b92915050565b7f4e487b71000000000000000000000000000000000000000000000000000000005f52603260045260245ffd5b5f60408201905061105e5f830185610d23565b61106b6020830184610ad9565b9392505050565b5f8115159050919050565b61108681611072565b8114611090575f5ffd5b50565b5f815190506110a18161107d565b92915050565b5f602082840312156110bc576110bb6109e0565b5b5f6110c984828501611093565b91505092915050565b5f81519050919050565b5f819050602082019050919050565b5f602082019050919050565b5f611101826110d2565b61110b8185610db7565b9350611116836110dc565b805f5b8381101561114657815161112d8882610ddf565b9750611138836110eb565b925050600181019050611119565b5085935050505092915050565b5f60a0820190506111665f830188610ad9565b6111736020830187610ad9565b818103604083015261118581866110f7565b90506111946060830185610d23565b6111a16080830184610ad9565b9695505050505050565b5f6040820190506111be5f830185610ad9565b6111cb6020830184610ad9565b9392505050565b5f82825260208201905092915050565b7f4d7573742073656e6420455448000000000000000000000000000000000000005f82015250565b5f611216600d836111d2565b9150611221826111e2565b602082019050919050565b5f6020820190508181035f8301526112438161120a565b9050919050565b5f60808201905061125d5f830187610ad9565b818103602083015261126f81866110f7565b905061127e6040830185610d23565b61128b6060830184610ad9565b95945050505050565b5f6060820190506112a75f830186610d23565b6112b46020830185610d23565b6112c16040830184610ad9565b94935050505056fea264697066735822122090792ef3501eb605d4fe28deeec90aa070c3427b6c4cff6e70d38acf4035dec064736f6c634300081c0033","linkReferences":{}},"methodIdentifiers":{"V2Router02Address()":"aadce83c","getAmountOutHelper(uint256,address[])":"497c5a4b","swapETHForTokens(uint256,address[],uint256)":"bafd54be","swapTokens(uint256,uint256,address[],uint256)":"f7b8dc8f","swapTokensForETH(uint256,uint256,address[],uint256)":"91e2952f"},"id":23}